S01300004E74695F50726F6A6563742E73726563B0
S11300000C943C000C94D9050C9459000C945900A0
S11300100C9459000C9459000C9459000C945900F8
S11300200C9459000C9459000C94A3060C94590098
S11300300C9459000C9459000C9455060C947C06AD
S11300400C942E060C9459000C9459000C945900ED
S11300500C9459000C9459000C9459000C945900B8
S11300600C9459000C9459004B045A046904780404
S113007087049604A504B40411241FBECFEFD8E06E
S1130080DEBFCDBF11E0A0E0B1E0E4E9FEE002C0D4
S113009005900D92AA3BB107D9F721E0AAEBB1E094
S11300A001C01D92A43CB207E1F70E9426010C9402
S11300B048070C940000DC01FB0180818823D1F007
S11300C09C919923C9F0891319C090E002C042138E
S11300D017C09F5F292F30E0FB01E20FF31F40811F
S11300E0442381F0FD01E20FF31F20812111EFCFA2
S11300F080E0089580E0089580E0089581E0089507
S113010081E0089580E00895AF92BF92CF92DF928C
S1130110EF92FF920F931F93CF93DF93CDB7DEB788
S113012060970FB6F894DEBF0FBECDBF5C0100E050
S11301306E0121E1C20ED11C80E291E00E94A20274
S11301408FE00E94B80260E081E00E94B003CE011B
S113015001967C010E94FF01182F8823D9F38AE2BB
S11301600E946502133239F0EC14FD0421F0F7010A
S113017011937F01EFCF0E94AC03BE016F5F7F4FED
S1130180C5010E945B008823B9F10E94AC030F5F94
S11301900330D1F480E391E00E94A20260E081E0A8
S11301A00E94B00381E491E00E94A202FAEA26EEE2
S11301B036E981E0F150204030408040D9F700001A
S11301C00E94AC0300E0B8CF81E591E00E94A20256
S11301D060E081E00E94B00380E691E00E94A20208
S11301E09FEFE7EAF1E69150E040F040E1F700C00C
S11301F000000E94AC03A0CF0E94AC0381E791E011
S11302000E94A20260E081E00E94B00382E891E0D3
S11302100E94A2022FEF37EA81E62150304080404D
S1130220E1F700C000000E94AC0360960FB6F8949A
S1130230DEBF0FBECDBFDF91CF911F910F91FF9015
S1130240EF90DF90CF90BF90AF900895CF93DF935E
S1130250CDB7DEB760970FB6F894DEBF0FBECDBF43
S113026089E0E0E0F1E0DE01119601900D928A95BB
S1130270E1F7FE013A9687E0DF011D928A95E9F7DE
S11302800E940A040E94F5020E9412040E94CE01F8
S113029082E00E94CB0383E00E94CB0361E088E10B
S11302A00E94D10461E089E10E94D10461E084E20A
S11302B00E94D10482E991E00E94A202BFEF23EDE3
S11302C080E3B15020408040E1F700C000000E946C
S11302D0AC03CE0101960E94840082EA91E00E9460
S11302E0A20260E081E00E94B0038DEA91E00E94E6
S11302F0A2020E94FF018823E1F3813339F483E0F1
S11303000E94E00382E00E94E00308C0823331F4DB
S113031083E00E94F50382E00E94F5039FEFABE7C0
S1130320B2E99150A040B040E1F700C000000E9443
S1130330AC0387E00E9415048C01BC0180E090E0CE
S11303400E9429030A31110528F460E088E10E9423
S11303503A0518C0C8014A97049748F461E088E157
S11303600E943A0561E082E30E940F040BC00E3143
S1130370110540F061E088E10E943A0561E083E6FE
S11303800E940F042FEF83EC99E0215080409040AD
S1130390E1F700C000000E94AC03CBCF60E08EE127
S11303A00E94D10460E08FE10E94D10460E080E209
S11303B00E94D10460E081E20E94D10461E08AE0FD
S11303C00E94D10461E08BE00E94D10461E08CE0E2
S11303D00E94D10461E08DE00E94D10461E08AE0D2
S11303E00E943A0561E08BE00E943A0561E08CE0EE
S11303F00E943A0561E08DE00E943A050895BF929B
S1130400CF92DF92EF92FF920F931F93CF93DF93DC
S1130410CDB7DEB760970FB6F894DEBF0FBECDBF81
S113042080E1E0E1F1E0DE01119601900D928A9500
S1130430E1F7CE0101966C010AE0B12C60E0802F57
S11304400E943A0576011EE1812F0E94A3058111C5
S113045015C09FEFEBEDF5E09150E040F040E1F77F
S113046000C00000812F0E94A305811107C0812FC5
S11304700E94A3058823D9F3F701B0808FE99FE098
S11304800197F1F700C000001F5F9FEFE91AF90A16
S11304901232D1F661E0802F0E943A050F5FE4E04A
S11304A0CE0ED11C0E3051F68B2D60960FB6F894FB
S11304B0DEBF0FBECDBFDF91CF911F910F91FF9093
S11304C0EF90DF90CF90BF900895CF93C82F61E055
S11304D082E20E943A0598B18C2F82958F70907FAA
S11304E0982B98B961E085E20E943A058FE99FE074
S11304F00197F1F700C0000060E085E20E943A0530
S11305008FED9EE20197F1F700C0000098B18C2FA7
S11305108F70907F892B88B961E085E20E943A054B
S11305208FE99FE00197F1F700C0000060E085E2E9
S11305300E943A058FED9EE20197F1F700C000009A
S1130540CF9108950F931F93CF93FC01808188234B
S113055059F08F01C0E00E946502CF5FF801EC0FF3
S1130560F11D80818111F7CFCF911F910F910895D3
S1130570CF93C82F60E082E20E943A0598B18C2F95
S113058082958F70907F982B98B961E085E20E94E4
S11305903A058FE99FE00197F1F700C0000060E0A1
S11305A085E20E943A058FED9EE20197F1F700C0C3
S11305B0000098B18C2F8F70907F892B88B961E0EF
S11305C085E20E943A058FE99FE00197F1F700C0A8
S11305D0000060E085E20E943A058FED9EE20197FB
S11305E0F1F700C00000CF91089561E087E10E9417
S11305F0D10461E086E10E94D10461E085E10E94BA
S1130600D10461E084E10E94D10461E085E20E94AA
S1130610D10461E082E20E94D1042FEF83ED90E3E4
S1130620215080409040E1F700C0000083E30E9425
S1130630B80282E30E94B80288E20E94B80281E014
S11306400E94B80282E00E94B8028CE00E94B802C4
S113065008954F925F926F927F92AF92BF92CF9222
S1130660DF92EF92FF921F93CF93DF93CDB7DEB764
S113067028970FB6F894DEBF0FBECDBF6B017C0187
S1130680FE01319688E0DF011D928A95E9F7C114D5
S1130690D104E104F10421F480E30E94650248C01E
S11306A0FF2084F48DE20E946502F094E094D094DB
S11306B0C094C11CD11CE11CF11CC114D104E1047F
S11306C0F104B1F110E00F2EFAE04F2E512C612C01
S11306D0712CF02D01C0182FAA24A394B12CAC0EB8
S11306E0BD1EA10EB11C17FDBA94C701B601A3012A
S11306F092010E940007F501608381E0810FC22E00
S1130700D32EE42EF52EC114D104E104F10419F71B
S1130710112374F0E1E0F0E0EC0FFD1FE10FF11D97
S113072017FDFA958081805D0E946502115092F751
S113073028960FB6F894DEBF0FBECDBFDF91CF91E0
S11307401F91FF90EF90DF90CF90BF90AF907F907C
S11307506F905F904F90089581E00E94B8020895D1
S1130760CF93DF9300D0CDB7DEB7823008F080E0BE
S1130770603108F060E090E8998390EC9A83FE0180
S1130780E80FF11D8181860F0E94B8020F900F902F
S1130790DF91CF910895823049F0833061F0813048
S11307A071F461E08DE00E94D104089561E08EE06F
S11307B00E94D104089561E08FE00E94D10408955D
S11307C0823049F0833061F0813071F461E08DE072
S11307D00E943A05089561E08EE00E943A0508956A
S11307E061E08FE00E943A050895823049F0833039
S11307F061F0813071F460E08DE00E943A05089563
S113080060E08EE00E943A05089560E08FE00E9467
S11308103A0508950E9400060E94100608950E9459
S1130820170608950E94240408950E9441049C011F
S1130830A4EFB1E00E9425072FEF33E040E050E041
S11308400E94DE06C9010895ECE7F0E080818F770D
S1130850808380818064808380818F7D8083EAE7C8
S1130860F0E08081806880838081806280838081E1
S113087081608083808182608083808184608083C2
S1130880089590E08830910508F07CC0FC01EC5C90
S1130890FF4F0C941F07ECE7F0E080818E7F80838C
S11308A080818D7F808380818B7F80838081877F1F
S11308B0808368C0ECE7F0E0808181608083808180
S11308C08D7F808380818B7F80838081877F8083FD
S11308D059C0ECE7F0E080818E7F80838081826064
S11308E0808380818B7F80838081877F80834AC0DF
S11308F0ECE7F0E080818160808380818260808386
S113090080818B7F80838081877F80833BC0ECE7FD
S1130910F0E080818E7F808380818D7F80838081E1
S1130920846080838081877F80832CC0ECE7F0E043
S113093080818160808380818D7F808380818460D9
S113094080838081877F80831DC0ECE7F0E0808115
S11309508E7F8083808182608083808184608083B5
S11309608081877F80830EC0ECE7F0E08081816026
S113097080838081826080838081846080838081A1
S1130980877F8083EAE7F0E08081806480838081D0
S113099084FFFDCF809178002091790090E0922B24
S11309A008959DEC899F912D1124292F2695269534
S11309B02695220F322F330F330F230F821B282F3C
S11309C0969596959695662319F0613061F1089590
S11309D0923089F09330D9F0913009F04AC034B1A3
S11309E081E090E002C0880F991F2A95E2F7809574
S11309F0832384B9089537B181E090E002C0880F61
S1130A00991F2A95E2F78095832387B908953AB10F
S1130A1081E090E002C0880F991F2A95E2F7809543
S1130A2083238AB90895923079F09330C1F09130DC
S1130A3001F534B181E090E002C0880F991F2A9536
S1130A40E2F7832B84B9089537B181E090E002C0C6
S1130A50880F991F2A95E2F7832B87B908953AB135
S1130A6081E090E002C0880F991F2A95E2F7832B5A
S1130A708AB908959DEC899F912D1124292F2695DB
S1130A8026952695220F322F330F330F230F821B07
S1130A90282F969596959695662319F0613061F105
S1130AA00895923089F09330D9F0913009F04AC01A
S1130AB035B181E090E002C0880F991F2A95E2F7D2
S1130AC08095832385B9089538B181E090E002C010
S1130AD0880F991F2A95E2F78095832388B9089592
S1130AE03BB181E090E002C0880F991F2A95E2F79C
S1130AF0809583238BB90895923079F09330C1F0B7
S1130B00913001F535B181E090E002C0880F991F62
S1130B102A95E2F7832B85B9089538B181E090E0F6
S1130B2002C0880F991F2A95E2F7832B88B908958C
S1130B303BB181E090E002C0880F991F2A95E2F74B
S1130B40832B8BB908959DEC899F912D1124292F16
S1130B50269526952695220F322F330F330F230F18
S1130B60821B282F892F869586958695823069F079
S1130B708330A1F08130D9F483B190E002C095951F
S1130B8087952A95E2F78170089586B190E002C0B6
S1130B90959587952A95E2F78170089589B190E03B
S1130BA002C0959587952A95E2F78170089580E0B3
S1130BB008951F920F920FB60F9211242F933F9313
S1130BC04F935F936F937F938F939F93AF93BF9351
S1130BD0EF93FF93E091BA01F091BB010995FF9166
S1130BE0EF91BF91AF919F918F917F916F915F91A1
S1130BF04F913F912F910F900FBE0F901F9018951A
S1130C0084B5816084BD84B5826084BD85B5877FE9
S1130C1085BD84B5806884BD84B5806284BD089533
S1130C2085B5887F85BD85B5846085BD08956130AF
S1130C3019F0623051F00895982F80E064E670E076
S1130C400E94CA06615067BD0895982F80E064E64B
S1130C5070E00E94CA06615068BD08951F920F9209
S1130C600FB60F9211242F933F934F935F936F937B
S1130C707F938F939F93AF93BF93EF93FF93E091F1
S1130C80BE01F091BF010995FF91EF91BF91AF9122
S1130C909F918F917F916F915F914F913F912F9190
S1130CA00F900FBE0F901F9018951F920F920FB6C2
S1130CB00F9211242F933F934F935F936F937F93DE
S1130CC08F939F93AF93BF93EF93FF93E091C001F2
S1130CD0F091C1010995FF91EF91BF91AF919F915F
S1130CE08F917F916F915F914F913F912F910F90D1
S1130CF00FBE0F901F9018951F920F920FB60F9270
S1130D0011242F933F934F935F936F937F938F930C
S1130D109F93AF93BF93EF93FF93E091C201F09140
S1130D20C3010995FF91EF91BF91AF919F918F916D
S1130D307F916F915F914F913F912F910F900FBED3
S1130D400F901F9018951F920F920FB60F921124B7
S1130D502F933F934F935F936F937F938F939F93BF
S1130D60AF93BF93EF93FF93E091BC01F091BD016A
S1130D700995FF91EF91BF91AF919F918F917F91D1
S1130D806F915F914F913F912F910F900FBE0F90F4
S1130D901F90189597FB072E16F4009407D077FD43
S1130DA009D00E94340707FC05D03EF49095819544
S1130DB09F4F0895709561957F4F0895A1E21A2E73
S1130DC0AA1BBB1BFD010DC0AA1FBB1FEE1FFF1FEB
S1130DD0A217B307E407F50720F0A21BB30BE40B3B
S1130DE0F50B661F771F881F991F1A9469F7609582
S1130DF07095809590959B01AC01BD01CF0108953C
S1130E00052E97FB1EF400940E94170757FD07D088
S1130E100E94DE0607FC03D04EF40C94170750958D
S1130E204095309521953F4F4F4F5F4F08959095D2
S1130E308095709561957F4F8F4F9F4F0895EE0F6A
S1130E40FF1F0590F491E02D0994A29FB001B39F78
S1130E50C001A39F700D811D1124911DB29F700DBF
S1130E60811D1124911D0895AA1BBB1B51E107C0CC
S1130E70AA1FBB1FA617B70710F0A61BB70B881F26
S1130E80991F5A95A9F780959095BC01CD010895B5
S1070E90F894FFCF00
S1130E943735393836304142000000000000000084
S1130EA43132334134353642373839432A302344D6
S1130EB4456E7465722070617373776F72643A005F
S1130EC453797374656D204C6F636B6564203A28A1
S1130ED400547279206166746572203130536563FD
S1130EE40057726F6E672050617373776F7264007A
S1130EF4506C656173652054727920616761696E11
S1130F040052696768742050617373776F72643A2E
S1130F14290057656C636F6D65204D6F68616D655D
S1130F24640057656C636F6D6520557365722D5F3E
S1130F342D00312D204C454473204F4E00322D207A
S10D0F444C454473204F464600005C
S9030000FC
